:1003280052454D4F5445204F504552415445442065
:1003380000202020202020524F424F5420202020EF
:1003480020200064697374616E63653A2020202060
:10035800636D002020202020464F525741524420F0
:1003680020202020200020202020204241434B57DD
:10037800415244202020202020002020202020201E
:100388004C454654202020202020002020202020DA
:100398005249474854202020202020002020202097
:0C03A8002053544F502020202020200023
:08046B008B0E8A0F8910AF050A
:10047300E4F511F512120632AB0EAA0FA910120001
:100483000E60330512E512700205116410451170F8
:10049300147FC0120632AB0E0510E510AA0F7002CE
:1004A300050F12061AAB0E0510E510AA0F70020510
:0604B3000F12061A80C2C0
:0104B9002220
:100601007F381206327F0E1206327F011206327FC8
:09061100061206327F8002063257
:100632008F80C2A7C2A6D2A57F017E001205E1C2A9
:02064200A522EF
:06061A0014F912000EFFAE
:100620008F80D2A7C2A6D2A57F017E001205E1C2AB
:02063000A52201
:06041B007BFF7A03792843
:060421008B138A148915FB
:10042700E4F516F517AB13AA14A91512000E6033DD
:100437000517E517700205166411451670147FC07D
:10044700120632AB130515E515AA1470020514122E
:10045700061AAB130515E515AA1470020514120642
:030467001A80C236
:01046A00226F
:0405DD007F647E00B9
:1005E100E4FDFCC3ED9FEC9E5015E4FBFA0BBB0050
:0F05F100010ABA07F8BBD0F50DBD00010C80E47C
:0106000022D7
:0805AF007BFF7A03794B7F808A
:1005B7008B138A148915120632AB13AA14A91512C4
:1005C700000EFF601012062074012515F515E4359D
:0605D70014F51480E4227B
:03000B00020644A6
:0F064400C0E0D28C050DE50D7002050CD0E03240
:10053B00758901E4F58CF58AC2A00000D2A0F50CF8
:10054B00F50D00050DE50D7002050C640A450C70E8
:10055B00F1C2A00030A1FDD2A9E4F50CF50DD28CAF
:0A056B0020A1FDC28CC2A90203B456
:1003B400E50D450C7019AF8CEFFEAD8A7C00E42D81
:1003C400FFEC3EFEE48F0B8E0AF509F508802EAF94
:1003D4008CEFFEAD8A7C00E42DFFEC3EFEE48F0B37
:1003E4008E0AF509F508AE0CAF0DFD7BC37A1579BD
:1003F40001F812007C8F0B8E0A8D098C08AF0BAEAE
:100404000AAD09AC08E47B3AFAF9F81204BA8F0B86
:070414008E0A8D098C0822FD
:0404FE00AE0AAF0B88
:040502008E138F14B1
:100506007C007D0A1200278F15E51575F00A8424F4
:1005160030FF120620E51575F00A84E5F02430FF59
:10052600120620AE13AF147C007D0A120027ED24BC
:0505360030FF02062069
:1001AF001206017F011206327F8012063212041BE3
:1001BF007FC01206327BFF7A0379391204211205B0
:1001CF00DD7F011206327F8012063212041B7FC0C0
:1001DF001206327BFF7A0379391204211205DDD220
:1001EF00AFC2A97F011206321205AF12053B7F89FC
:1001FF001206321204FEE47F1EFEFDFCAB0BAA0AB0
:10020F00A909A808C31200CB500AC2A212067A127B
:10021F0005DDD2A230945330955030964D20974A39
:10022F007F011206327F801206327BFF7A03795BE1
:10023F001204211205DD1205757F01120632120517
:10024F00AF12053B7F891206321204FEE47F1EFEB9
:10025F00FDFCAB0BAA0AA909A808C31200CB500AD0
:10026F00C2A212067A1205DDD2A23094283095254B
:10027F0020962230971F7F011206327F801206329E
:10028F007BFF7A03796E1204211205DD12065F12CD
:10029F0005DD12067A30942520952230961F30976F
:1002AF001C7F011206327F801206327BFF7A0379A0
:1002BF00821204211206711205DD12067A2094258E
:1002CF0030952230961F30971C7F011206327F80A7
:1002DF001206327BFF7A03799312042112066812F9
:1002EF0005DD12067A3094030201F2309503020104
:1002FF00F22096030201F22097030201F27F01120E
:10030F0006327F801206327BFF7A0379A412042112
:09031F0012067A1205DD0201F25A
:09065F00C290D291D292C2932202
:10057500D290C291C292D2937F011206321205AF78
:1005850012053B7F891206321204FEE47F1EFEFD32
:10059500FCAB0BAA0AA909A808C31200CB500AC2D2
:0A05A500A212067A1205DDD2A2228E
:09066800D290C291D292C29322F9
:09067100C290D291C292D29322F0
:09067A00D290D291D292D29322C7
:03000000020653A2
:0C065300787FE4F6D8FD7581170201AF36
:10000E00BB010689828A83E0225002E722BBFE02F0
:09001E00E32289828A83E4932223
:10002700BC000BBE0029EF8DF084FFADF022E4CCBD
:10003700F875F008EF2FFFEE33FEEC33FCEE9DEC86
:10004700984005FCEE9DFE0FD5F0E9E4CEFD22EDCC
:10005700F8F5F0EE8420D21CFEADF075F008EF2F16
:10006700FFED33FD4007985006D5F0F222C398FD07
:050077000FD5F0EA22A4
:10007C00E88FF0A4CC8BF0A42CFCE98EF0A42CFC23
:10008C008AF0EDA42CFCEA8EF0A4CDA8F08BF0A4A1
:10009C002DCC3825F0FDE98FF0A42CCD35F0FCEB00
:1000AC008EF0A4FEA9F0EB8FF0A4CFC5F02ECD39C5
:0F00BC00FEE43CFCEAA42DCE35F0FDE43CFC2232
:1004BA00C2D5E830E70FB2D5E4C39BFBE49AFAE46D
:1004CA0099F9E498F8EC30E717B2D51204F0120162
:1004DA001DE4C39BFBE49AFAE499F9E498F88003D3
:1004EA0012011D30D50DE4C39FFFE49EFEE49DFD7D
:0404FA00E49CFC2260
:1000CB00EB9FF5F0EA9E42F0E99D42F0EC6480C8AC
:0600DB0064809845F0224C
:1000E10075F008758200EF2FFFEE33FECD33CDCCD6
:1000F10033CCC58233C5829BED9AEC99E582984059
:100101000CF582EE9BFEED9AFDEC99FC0FD5F0D635
:10011100E4CEFBE4CDFAE4CCF9A88222B800C1B95F
:100121000059BA002DEC8BF084CFCECDFCE5F0CB9D
:10013100F97818EF2FFFEE33FEED33FDEC33FCEBD6
:1001410033FB10D703994004EB99FB0FD8E5E4F991
:10015100FA227818EF2FFFEE33FEED33FDEC33FC7E
:10016100C933C910D7059BE99A4007EC9BFCE99A72
:10017100F90FD8E0E4C9FAE4CCFB2275F010EF2FB7
:10018100FFEE33FEED33FDCC33CCC833C810D707B7
:100191009BEC9AE899400AED9BFDEC9AFCE899F8F2
:0E01A1000FD5F0DAE4CDFBE4CCFAE4C8F92285
:00000001FF
